:020000040800F2
:1000000000200020851A0008D71A0008E31A00080B
:10001000E91A0008EF1A0008F51A000800000000AD
:10002000000000000000000000000000B111000806
:10003000FB1A0008000000002113000869130008E3
:10004000D51A0008D51A0008D51A0008D51A0008D4
:10005000D51A0008D51A0008D51A0008D51A0008C4
:10006000D51A0008D51A0008D51A0008D51A0008B4
:10007000D51A0008D51A0008D51A0008D51A0008A4
:10008000D51A0008D51A0008D51A0008000000008B
:10009000000000000000000000000000D51A000869
:1000A000D51A0008D51A0008D51A0008D51A000874
:1000B000111A0008D51A0008D51A0008D51A000828
:1000C000D51A0008D51A0008D51A0008D51A000854
:1000D000D51A0008D51A0008D51A0008D51A000844
:1000E000D51A0008D51A0008D51A0008000000002B
:1000F0000000000000000000000000000000000000
:1001000000000000000000000000000000000000EF
:100110000000000000000000D51A0008D51A0008F1
:1001200000000000000000000000000000000000CF
:1001300000000000000000000000000000000000BF
:1001400000000000000000000000000000000000AF
:10015000000000000000000000000000000000009F
:10016000000000000000000000000000000000008F
:10017000000000000000000000000000000000007F
:10018000000000000000000000000000000000006F
:10019000000000000000000000000000000000005F
:1001A000000000000000000000000000000000004F
:1001B000000000000000000000000000000000003F
:1001C0000000000000000000000000005FF808F1DF
:1001D00010B5054C237833B9044B13B10448AFF381
:1001E00000800123237010BD60000020000000008B
:1001F000602B000808B5034B1BB103490348AFF35C
:10020000008008BD0000000064000020602B000892
:1002100080B400AF224A224B9B6943F4017393617F
:10022000204A204B1B6823F00F0313601D4A1D4B0F
:100230001B6813601C4B00229A601B4A1A4B9B6878
:1002400043F001039360184A174B9B6843F0040383
:10025000936000BF144B9B6803F00403002BF9D19B
:10026000114A114B9B6843F0020393600E4B00222E
:10027000DA620D4B00225A630B4B07221A610A4ABD
:10028000094B9B6843F001039360074A064B9B6848
:1002900043F48003936000BFBD4680BC704700BF3D
:1002A00000100240000801400024014080B483B0E7
:1002B00000AF0346FB710C4AFB7953630A4A0A4BB1
:1002C0009B6843F48003936000BF074B1B6803F0F7
:1002D0000203002BF9D0044BDB6C9BB218460C37A1
:1002E000BD4680BC704700BF0024014080B582B08D
:1002F00002AF002206210A2001F0E0F80246074B77
:100300001A60074B019300230093002380220549C4
:10031000054801F015FD00BFBD4680BD80000020EE
:100320007C000020782B00082D03000880B586B0E3
:1003300000AF786001F0F8FF0346FB60FFF768FF4D
:100340000020FFF7B3FF03463B823B8A1A4640F684
:10035000E44303FB02F30D4A82FB03121A44D21258
:10036000DB17D31A9BB27B8200233B75084B1868BE
:1003700007F110010023002201F0FCF807F10C0343
:100380004FF47A71184601F023FED9E78100088006
:100390008000002080B582B002AF064B019302239B
:1003A0000093002380220449044801F0C9FC00BFE7
:1003B000BD4680BD84000020842B0008C1030008D6
:1003C00080B588B000AF78600023FB770023BB6165
:1003D00000237B610021274800F040FE0346FB74A8
:1003E000FB7C012B3FD1FB7F002B3CD101F09CFF1C
:1003F000F860FA687B69D31AC82B34D9BB6901331A
:10040000BB61FB687B61B9691B4BA3FB01239A08A5
:1004100013469B001344CA1A042A1CD801A353F89C
:1004200022F000BF390400083F040008450400081A
:100430004B040008510400080023FB720BE0012369
:10044000FB7208E00323FB7205E00423FB7202E069
:100450000223FB7200BF094B186807F10B01002350
:10046000002201F087F8FB7CFB77322001F002FECE
:10047000B0E700BF00080140CDCCCCCCA8180020CC
:1004800080B588B000AF786000237B6101F050FE3A
:10049000434B1B68002B01D100F0C6F87B68002B92
:1004A00012D008227B6803F00703D31A08333B619C
:1004B0003B69DA437B689A4204D37A683B69134408
:1004C0007B6001E000237B607B68002B60DB7B6846
:1004D000002B5DD0334B1B687A689A4258D8324B58
:1004E000BB61314B1B68FB6104E0FB69BB61FB69CD
:1004F0001B68FB61FB695A687B689A4203D2FB69FF
:100500001B68002BF1D1264B1B68FA699A423FD039
:10051000BB691B68082213447B61FB691A68BB69CD
:100520001A60FB695A687B68D21A08235B009A42FA
:100530000FD9FA697B681344FB60FB695A687B68D2
:10054000D21AFB685A60FB697A685A60F86800F052
:10055000C7F8144B1A68FB695B68D31A114A136019
:10056000104B1A68114B1B689A4203D20D4B1B6843
:100570000E4A1360FB695B6843F00042FB695A60F6
:10058000FB6900221A600A4B1B680133084A13609A
:1005900001F0DCFD7B6918462037BD4680BD00BFF9
:1005A0009018002094180020881800209818002027
:1005B0009C18002080B584B000AF78607B68FB6039
:1005C0007B68002B27D008235B42FA681344FB604A
:1005D000FB68BB60BB685B68002B1CDABB681B68F0
:1005E000002B18D1BB685B6823F00042BB685A60DF
:1005F00001F09EFDBB685A68094B1B681344084A0A
:100600001360B86800F06CF8064B1B680133054AAC
:10061000136001F09BFD00BF1037BD4680BD00BFD9
:1006200094180020A018002080B485B000AF4FF4CB
:10063000C053BB60254BFB60FB6803F00703002B36
:100640000CD0FB680733FB60FB6823F00703FB60FB
:10065000BA68FB68D31A1D4A1344BB60FB687B6011
:100660001B4A7B6813601A4B00225A607A68BB6889
:100670001344FB600822FB689B1AFB60FB6823F0B5
:100680000703FB60FB68134A1360124B1B680022D0
:100690005A60104B1B6800221A607B683B603B6805
:1006A000FA68D21A3B685A600A4B1A683B681A60AB
:1006B0003B685B68084A13603B685B68074A1360E5
:1006C00000BF1437BD4680BC704700BF88000020C3
:1006D00088180020901800209818002094180020F6
:1006E00080B485B000AF7860274BFB6002E0FB6808
:1006F0001B68FB60FB681A687B689A42F7D3FB684B
:10070000BB60FB685B68BA681A447B689A4208D190
:10071000FB685A687B685B681A44FB685A60FB6830
:100720007B607B68BB607B685B68BA681A44FB6867
:100730001B689A4218D1FB681A68144B1B689A42CE
:100740000DD07B685A68FB681B685B681A447B683D
:100750005A60FB681B681A687B681A6008E00B4BDC
:100760001A687B681A6003E0FB681A687B681A6085
:10077000FA687B689A4202D0FB687A681A6000BF08
:100780001437BD4680BC70478818002090180020A0
:1007900080B582B002AF00220121052000F08EFE5C
:1007A0000246074B1A60074B019301230093002375
:1007B00080220549054801F0C3FA00BFBD4680BD4F
:1007C000A8180020A4180020902B0008D1070008CA
:1007D00080B584B000AF78600323FB7201F0A4FD04
:1007E000F8602E4B1B6807F10A010022184600F042
:1007F0006BFF0346012B18D1BB7AFB72BB7A012B2E
:1008000009D0022B0CD0002B00D00EE00D21244883
:1008100000F04DFC09E00D21214800F035FC04E01A
:100820000D211F4800F056FC00BFFB7A042B2CD88A
:1008300001A252F823F000BF8B0800088B080008C3
:100840008B0800084D0800086D08000801F06CFDD9
:100850000246FB68D31AB3F57A7F18D30D211048EE
:1008600000F038FC01F060FDF86010E001F05CFD84
:100870000246FB68D31AF92B0BD90D21084800F06A
:1008800029FC01F051FDF86003E000BF02E000BF69
:1008900000E000BF0A2001F0EDFBA2E7A81800204D
:1008A0000010014080B483B000AF78607B6803F132
:1008B00008027B685A607B684FF0FF329A607B6861
:1008C00003F108027B68DA607B6803F108027B6849
:1008D0001A617B6800221A6000BF0C37BD4680BCDD
:1008E000704780B483B000AF78607B6800221A61E3
:1008F00000BF0C37BD4680BC704780B485B000AFE8
:10090000786039603B681B68BB60BB68B3F1FF3F30
:1009100003D17B681B69FB600CE07B680833FB60DC
:1009200002E0FB685B68FB60FB685B681A68BB6899
:100930009A42F6D9FB685A683B685A603B685B6824
:100940003A689A603B68FA689A60FB683A685A604D
:100950003B687A681A617B681B685A1C7B681A605E
:1009600000BF1437BD4680BC704780B485B000AF6F
:1009700078607B681B69FB607B685B687A6892685B
:100980009A607B689B687A6852685A60FB685A680C
:100990007B689A4203D17B689A68FB685A607B68DF
:1009A00000221A61FB681B685A1EFB681A60FB680C
:1009B0001B6818461437BD4680BC704780B483B0AE
:1009C00000AF03463960FB7197F90730002B0BDA53
:1009D0000D49FB7903F00F03043B3A68D2B21201D0
:1009E000D2B20B441A7609E0084997F907303A6801
:1009F000D2B21201D2B20B4483F8002300BF0C37ED
:100A0000BD4680BC704700BF00ED00E000E100E0A3
:100A100080B582B000AF78607B68B3F1807F01D38E
:100A2000012311E00A4A7B6823F07F43013B5360B6
:100A30000F214FF0FF30FFF7C1FF054B00229A60F6
:100A4000034B07221A60002318460837BD4680BDB5
:100A500010E000E080B500AF384A384B1B6843F423
:100A60008033136000BF354B1B6803F40033002B49
:100A7000F9D0334A324B1B6843F010031360304AFD
:100A80002F4B1B6823F0030313602D4A2C4B1B686C
:100A900043F002031360294A284B5B6823F47C135C
:100AA0005360264A254B5B6823F400335360234A86
:100AB000224B5B6843F480335360204A1F4B5B68D2
:100AC00043F4E01353601D4A1C4B5B6853601B4AA0
:100AD0001A4B5B6843F480635360184A174B5B689A
:100AE0005360164A154B1B6843F08073136000BFB8
:100AF000124B1B6803F00073002BF9D00F4A0F4B09
:100B00005B6823F0030353600C4A0C4B5B6843F0B3
:100B10000203536000BF094B5B6803F00803002B1E
:100B2000F9D001F029F8074B1B68074AA2FB032301
:100B30009B091846FFF76CFF00BF80BD0010024004
:100B40000020024048000020D34D621080B500AF65
:100B5000FFF780FF00F006F801F0E8F801F0AEFAC8
:100B6000FEE7000080B500AF0C4A0C4B9B6943F0D8
:100B700010039361002302220D21094800F050F96F
:100B8000064A064B9B6943F004039361012200214E
:100B9000044800F05BF800BF80BD00BF00100240B9
:100BA000001001400008014080B584B000AF1A4B2E
:100BB0001B6807F108010022184600F085FD034676
:100BC000012B24D17B89B3F5FA6F09D90423FB717A
:100BD000124B1868F91D0023002200F0CBFC16E030
:100BE0007B89B3F57A7F09D90323BB710B4B186856
:100BF000B91D0023002200F0BDFC08E000237B713A
:100C0000064B1868791D0023002200F0B3FC00BFDA
:100C10001037BD4680BD00BF80000020A81800200E
:100C200080B582B000AF786039600D21034800F0D4
:100C300051FA4FF47A7001F01DFAF6E70010014006
:100C400080B500AFFFF7B0FF00BF80BD80B485B0B6
:100C500000AFF860B9607A60BB68072B6CD9FB689D
:100C60005B686E49BA6851F82220012191406B48B7
:100C7000BA6850F822200132012000FA02F20A4339
:100C8000D2431A40FB685A607B68012B1BD0012BB2
:100C900002D3022B33D0BBE0FB685B685F49BA68C4
:100CA00051F822200232012191405C48BA6850F884
:100CB00022200332012000FA02F20A43D2431A40F2
:100CC000FB685A60A4E0FB685B685449BA6851F855
:100CD00022200332012101FA02F2D2431A40FB68BA
:100CE0005A60FB685B684D49BA6851F822200232AD
:100CF000012101FA02F21A43FB685A6088E0FB689E
:100D00005B684649BA6851F822200332012101FA92
:100D100002F21A43FB685A60FB685B683F49BA6895
:100D200051F822200232012101FA02F2D2431A4084
:100D3000FB685A6000BF6BE0FB681B683749BA6804
:100D400051F82220012191403448BA6850F82220FD
:100D50000132012000FA02F20A43D2431A40FB6832
:100D60001A607B68012B1BD0012B02D3022B33D0DE
:100D70004EE0FB681B682949BA6851F8222002320C
:100D8000012191402548BA6850F822200332012001
:100D900000FA02F20A43D2431A40FB681A6037E0B5
:100DA000FB681B681D49BA6851F8222003320121F3
:100DB00001FA02F2D2431A40FB681A60FB681B6812
:100DC0001649BA6851F822200232012101FA02F2D2
:100DD0001A43FB681A601BE0FB681B680F49BA687E
:100DE00051F822200332012101FA02F21A43FB6872
:100DF0001A60FB681B680949BA6851F82220023260
:100E0000012101FA02F2D2431A40FB681A6000BFC6
:100E100000BF1437BD4680BC704700BF00000020F3
:100E200080B485B000AFF860B9607A603B60BB68A1
:100E3000072B40F28680FB685A688749BB6851F8E7
:100E40002330796801FA03F31A43FB685A603B6860
:100E5000032B00F2FB8001A252F823F06D0E000874
:100E60009B0E0008D30E00080B0F0008FB685B68A0
:100E70007949BA6851F8222002320121914076481E
:100E8000BA6850F822200332012000FA02F20A4325
:100E9000D2431A40FB685A60D8E0FB685B686E4931
:100EA000BA6851F822200332012101FA02F2D2433A
:100EB0001A40FB685A60FB685B686749BA6851F87A
:100EC00022200232012101FA02F21A43FB685A6021
:100ED000BCE0FB685B686049BA6851F822200332C5
:100EE000012101FA02F21A43FB685A60FB685B6851
:100EF0005949BA6851F822200232012101FA02F25E
:100F0000D2431A40FB685A60A0E0FB685B68524914
:100F1000BA6851F822200332012101FA02F21A4381
:100F2000FB685A60FB685B684B49BA6851F822203D
:100F30000232012101FA02F21A43FB685A6000BF33
:100F400084E0FB681A684449BB6851F8233079682B
:100F500001FA03F31A43FB681A603B68032B75D848
:100F600001A252F823F000BF790F0008A70F000874
:100F7000DF0F000817100008FB681B683649BA68C5
:100F800051F822200232012191403348BA6850F8CA
:100F900022200332012000FA02F20A43D2431A400F
:100FA000FB681A6052E0FB681B682B49BA6851F86D
:100FB00022200332012101FA02F2D2431A40FB68D7
:100FC0001A60FB681B682449BA6851F82220023273
:100FD000012101FA02F21A43FB681A6036E0FB684D
:100FE0001B681D49BA6851F822200332012101FA19
:100FF00002F21A43FB681A60FB681B681649BA685C
:1010000051F822200232012101FA02F2D2431A40A1
:10101000FB681A601AE0FB681B680F49BA6851F850
:1010200022200332012101FA02F21A43FB681A60FE
:10103000FB681B680849BA6851F822200232012176
:1010400001FA02F21A43FB681A6000BF00BF1437AE
:10105000BD4680BC704700BF0000002080B483B054
:1010600000AF786039607B689B6801213A6801FABB
:1010700002F21340002B0CBF01230023DBB2184601
:101080000C37BD4680BC704780B483B000AF786039
:1010900039607B681B6901213A6801FA02F21A4340
:1010A0007B681A6100BF0C37BD4680BC704780B4B6
:1010B00083B000AF786039607B685B6901213A6872
:1010C00001FA02F21A437B685A6100BF0C37BD4631
:1010D00080BC704780B483B000AF786039607B68B3
:1010E000DB6801213A6801FA02F21340002B09D0B3
:1010F0007B685B6901213A6801FA02F21A437B6856
:101100005A6108E07B681B6901213A6801FA02F222
:101110001A437B681A6100BF0C37BD4680BC70471C
:1011200080B485B000AFF860B9607A60FB68043BBA
:10113000FB60FB684FF080721A60FB68043BFB6049
:10114000BB6823F00102FB681A60FB68043BFB608C
:10115000084AFB681A60FB68143BFB607A68FB680E
:101160001A60FB68203BFB60FB6818461437BD46DD
:1011700080BC70477911000880B483B000AF0023B1
:101180003B604FF0500383F31188BFF36F8FBFF3C1
:101190004F8F7B6000BF3B68002BFCD000BF0C373B
:1011A000BD4680BC70470000000000000000000049
:1011B000074B19680868B0E8F00F80F30988BFF39F
:1011C0006F8F4FF0000080F311884EF00D0E7047C6
:1011D000B818002000BF00BF06480068006880F310
:1011E000088862B661B6BFF34F8FBFF36F8F00DF21
:1011F00000BF000008ED00E000BF00BF80B584B074
:1012000000AF294BFB60FB681B78DBB2BB60FB685F
:10121000FF221A70FB681B78DBB2FB71FB79DBB233
:1012200003F05003DAB2214B1A70214B07221A60E7
:1012300009E01F4B1B68013B1D4A1360FB79DBB2C1
:101240005B00DBB2FB71FB79DBB203F08003802B28
:10125000EFD0174B1B681B02154A1360144B1B6819
:1012600003F4E063124A1360BB68DAB2FB681A70D9
:10127000104A104B1B6843F47F0313600D4A0D4B5B
:101280001B6843F07F43136000F08EF80A4B002286
:101290001A60FFF7A1FF01F04FF9FFF76DFF002380
:1012A00018461037BD4680BD00E400E0AC180020B1
:1012B000B018002020ED00E04000002080B483B092
:1012C00000AF4FF0500383F31188BFF36F8FBFF36C
:1012D0004F8F7B60044B1B680133034A136000BFD0
:1012E0000C37BD4680BC70474000002080B483B0FE
:1012F00000AF094B1B68013B074A1360064B1B6894
:10130000002B04D100237B607B6883F3118800BF2E
:101310000C37BD4680BC7047400000200000000034
:10132000EFF30980BFF36F8F0D4B1A6820E9F00FC0
:1013300010602DE908404FF0500080F3118801F053
:10134000FBF84FF0000080F31188BDE808401968F1
:101350000868B0E8F00F80F30988BFF36F8F70471B
:10136000B818002000BF00BF80B582B000AF4FF0BA
:10137000500383F31188BFF36F8FBFF34F8F7B60F0
:1013800000F0E0FF0346002B03D0064B4FF08052E5
:101390001A6000233B603B6883F3118800BF083765
:1013A000BD4680BD04ED00E080B400AF074B0022D5
:1013B0001A60074B00221A60064B074A1A60034B5B
:1013C00007221A6000BFBD4680BC704710E000E0F5
:1013D00018E000E014E000E03F19010080B584B09F
:1013E00000AF786039600123FB607B68BB60BB683D
:1013F000002B5AD0BB68DB6B002B56D0BB68DB6B75
:101400004FF0FF32B2FBF3F2BB681B6C9A424CD335
:10141000FFF754FFBB681A68BB68DB6BB968096CDF
:1014200001FB03F31A44BB689A60BB6800229A630D
:10143000BB681A68BB685A60BB681A68BB68DB6B1C
:10144000013BB968096C01FB03F31A44BB68DA601D
:10145000BB68FF2283F84420BB68FF2283F8452045
:101460003B68002B14D1BB681B69002B1AD0BB68EA
:101470001033184601F0EAF80346002B12D00E4B49
:101480004FF080521A60BFF34F8FBFF36F8F09E0A8
:10149000BB6810331846FFF705FABB6824331846BB
:1014A000FFF700FAFFF722FF01E00023FB60FB6873
:1014B00018461037BD4680BD04ED00E080B58AB007
:1014C00002AFF860B9601346FB710023FB61FB6853
:1014D000002B2AD04FF0FF32FB68B2FBF3F2BB685F
:1014E0009A4222D3FB68BA6802FB03F313F1490F57
:1014F0001BD8FB68BA6802FB03F3BB61BB694833C6
:101500001846FEF7BDFFF861FB69002B0DD0FB69A3
:101510007B617B6948337B61FA79FB6900931346F1
:101520007A69B968F86800F005F8FB691846203751
:10153000BD4680BD80B584B000AFF860B9607A6008
:10154000FB70BB68002B03D1BB69BA691A6002E06B
:10155000BB697A681A60BB69FA68DA63BB69BA6802
:101560001A640121B869FFF739FF00BF1037BD4683
:1015700080BD000080B58AB000AFF860B9607A60C5
:101580003B6000237B62FB683B62FFF797FE3B6A90
:101590009A6B3B6ADB6B9A4202D33B68022B29D1E0
:1015A0003A68B968386A00F031F9F8613B6A5B6AF9
:1015B000002B10D03B6A2433184601F047F803464D
:1015C000002B13D03F4B4FF080521A60BFF34F8F68
:1015D000BFF36F8F0AE0FB69002B07D0394B4FF048
:1015E00080521A60BFF34F8FBFF36F8FFFF77EFEFD
:1015F000012363E07B68002B03D1FFF777FE002314
:101600005CE07B6A002B06D107F11403184601F059
:10161000E5F801237B62FFF769FE00F089FDFFF723
:101620004DFE3B6A93F844305BB2B3F1FF3F03D108
:101630003B6A002283F844203B6A93F845305BB252
:10164000B3F1FF3F03D13B6A002283F84520FFF747
:101650004DFE3A1D07F114031146184601F0D4F867
:101660000346002B24D1386A00F0BAF90346002B58
:1016700018D03B6A10337A681146184600F0D0FF44
:10168000386A00F045F900F061FD0346002B7FF455
:101690007CAF0C4B4FF080521A60BFF34F8FBFF3FB
:1016A0006F8F72E7386A00F033F900F04FFD6CE796
:1016B000386A00F02DF900F049FD0023184628375C
:1016C000BD4680BD04ED00E080B58AB000AFF86093
:1016D000B9607A6000237B62FB683B62FFF7EEFD36
:1016E0003B6A9B6BFB61FB69002B1FD0B968386AB2
:1016F00000F0E8F8FB695A1E3B6A9A633B6A1B6973
:10170000002B0FD03B6A1033184600F09FFF0346B2
:10171000002B07D03C4B4FF080521A60BFF34F8F25
:10172000BFF36F8FFFF7E2FD012369E07B68002BB9
:1017300003D1FFF7DBFD002362E07B6A002B06D1BB
:1017400007F11403184601F049F801237B62FFF703
:10175000CDFD00F0EDFCFFF7B1FD3B6A93F844309E
:101760005BB2B3F1FF3F03D13B6A002283F8442010
:101770003B6A93F845305BB2B3F1FF3F03D13B6A5C
:10178000002283F84520FFF7B1FD3A1D07F114034D
:101790001146184601F038F80346002B23D1386A69
:1017A00000F008F90346002B17D03B6A24337A680F
:1017B0001146184600F034FF386A00F0A9F800F02E
:1017C000C5FC0346002B89D10F4B4FF080521A60A5
:1017D000BFF34F8FBFF36F8F80E7386A00F098F840
:1017E00000F0B4FC7AE7386A00F092F800F0AEFC42
:1017F000386A00F0DFF80346002B3FF46FAF002398
:1018000018462837BD4680BD04ED00E080B586B09F
:1018100000AFF860B9607A6000233B61FB689B6BA6
:101820007B61FB681B6C002B43D07B68002B19D1BC
:10183000FB685868FB681B6C1A46B96801F07CF9B4
:10184000FB685A68FB681B6C1A44FB685A60FB68AB
:101850005A68FB689B689A422BD3FB681A68FB683E
:101860005A6026E0FB68D868FB681B6C1A46B968AA
:1018700001F062F9FB68DA68FB681B6C5B421A4492
:10188000FB68DA60FB68DA68FB681B689A4207D27B
:10189000FB689A68FB681B6C5B421A44FB68DA6061
:1018A0007B68022B05D17B69002B02D07B69013B51
:1018B0007B617B695A1CFB689A633B691846183741
:1018C000BD4680BD80B582B000AF786039607B686E
:1018D0001B6C002B18D07B68DA687B681B6C1A4481
:1018E0007B68DA607B68DA687B689B689A4203D31E
:1018F0007B681A687B68DA607B68D9687B681B6CD8
:101900001A46386801F018F900BF0837BD4680BD97
:1019100080B584B000AF7860FFF7D0FC7B6893F8A7
:101920004530FB7311E07B685B6A002B12D07B684B
:101930002433184600F08AFE0346002B01D000F045
:10194000ADFFFB7B013BDBB2FB7397F90F30002B44
:10195000E9DC00E000BF7B68FF2283F84520FFF749
:10196000C5FCFFF7ABFC7B6893F84430BB7311E018
:101970007B681B69002B12D07B681033184600F07F
:1019800065FE0346002B01D000F088FFBB7B013BC6
:10199000DBB2BB7397F90E30002BE9DC00E000BF2F
:1019A0007B68FF2283F84420FFF7A0FC00BF1037BC
:1019B000BD4680BD80B584B000AF7860FFF77EFC87
:1019C0007B689B6B002B02D10123FB6001E00023AD
:1019D000FB60FFF78BFCFB6818461037BD4680BDE7
:1019E00080B584B000AF7860FFF768FC7B689A6BC5
:1019F0007B68DB6B9A4202D10123FB6001E000238C
:101A0000FB60FFF773FCFB6818461037BD4680BDCE
:101A100080B400AF4FF080431B8A9BB203F00103F8
:101A2000002B24D04FF080424FF080431B8A9BB2A2
:101A300023F001039BB213820F4B1B6801330E4A44
:101A400013600D4B1B68C72B02D90B4B00221A6089
:101A5000094B1A68094B1B689A4204D2084B4FF491
:101A600000521A6103E0064B4FF400525A6100BF66
:101A7000BD4680BC704700BFB41800204400002061
:101A800000100140DFF834D0002103E00C4B5B581C
:101A9000435004310B480C4B42189A42F6D30B4A80
:101AA00002E0002342F8043B094B9A42F9D300F0CC
:101AB0002BF801F01DF8FFF749F8704700200020CF
:101AC000AC2B000800000020600000206000002017
:101AD00094190020FEE780B400AF00BFBD4680BC73
:101AE000704780B400AFFEE780B400AFFEE780B47B
:101AF00000AFFEE780B400AFFEE780B400AF00BFE8
:101B0000BD4680BC7047000080B500AF174A174B38
:101B10001B6843F0010313601449144B5A68144BBB
:101B200013404B60114A114B1B6823F0847323F45C
:101B3000803313600D4A0D4B1B6823F48023136020
:101B40000A4A0A4B5B6823F4FE035360074B4FF4C9
:101B50001F029A60054B0022DA6200F077F8054B0D
:101B60004FF000629A6000BF80BD00BF00100240CD
:101B70000000FFF800ED00E080B485B000AF002366
:101B8000FB600023BB6000237B6000233B602A4B8B
:101B90005B6803F00C03FB60FB68042B07D0082B89
:101BA00009D0002B2FD1254B254A1A602FE0234B5B
:101BB000234A1A602BE0204B5B6803F47013BB6070
:101BC0001D4B5B6803F480337B60BB689B0C023366
:101BD000BB607B68002B06D1BB681A4A02FB03F38B
:101BE000164A136013E0144BDB6A03F00F03013352
:101BF0003B60134A3B68B2FBF3F3BA6802FB03F3A2
:101C00000E4A136003E00D4B0D4A1A6000BF0A4BE9
:101C10005B681B0903F00F030B4AD35CDBB2FB606C
:101C2000064B1A68FB6822FA03F3044A136000BFEC
:101C30001437BD4680BC70470010024048000020A9
:101C400000127A0000093D004C00002080B500AF72
:101C500000F002F800BF80BD80B483B000AF002365
:101C60007B6000233B60304A2F4B1B6843F480337A
:101C700013602D4B1B6803F400333B607B6801331A
:101C80007B603B68002B03D17B68B3F5A06FF0D17C
:101C9000254B1B6803F40033002B02D001233B606B
:101CA00001E000233B603B68012B37D11E4A1E4BED
:101CB0005B6853601C4A1C4B5B6853601A4A1A4BA2
:101CC0005B685360184A184B5B6823F47C135360BD
:101CD000154A154B5B6843F498135360124A124B34
:101CE0001B6843F08073136000BF0F4B1B6803F049
:101CF0000073002BF9D00C4A0B4B5B6823F00303F5
:101D00005360094A084B5B6843F00203536000BF0D
:101D1000054B5B6803F00C03082BF9D100BF0C37AF
:101D2000BD4680BC704700BF0010024080B500AFC8
:101D3000FEF72EFDFEF72EFBFEF7D8FA00BF80BDA2
:101D400080B58CB004AFF860B9603B601346FB808F
:101D5000FB889B001846FEF793FB78617B69002B9C
:101D600013D04820FEF78CFBF861FB69002B08D0EC
:101D700048220021F86900F0EAFEFB697A691A63DB
:101D800005E07869FEF716FC01E00023FB61FB69C2
:101D9000002B13D0FA8800230393FB690293FB6A9C
:101DA0000193BB6A00933B68B968F86800F00EF8CD
:101DB000F86900F079F80123BB6102E04FF0FF33CE
:101DC000BB61BB6918462037BD4680BD80B586B073
:101DD00000AFF860B9607A603B60BB6A186B7B68E3
:101DE0009B001A46A52100F0B2FEBB6A1A6B7B6805
:101DF00003F18043013B9B0013443B613B6923F0AB
:101E000007033B61BB68002B1ED000237B6112E0FF
:101E1000BA687B6913441978BA6A7B69134434330E
:101E20000A461A70BA687B6913441B78002B06D0E7
:101E30007B6901337B617B69092BE9D900E000BF35
:101E4000BB6A002283F83D203B6A022B01D90223A2
:101E50003B62BB6A3A6ADA62BB6A04331846FEF731
:101E600040FDBB6A18331846FEF73BFDBB6ABA6AF1
:101E70001A613B6AC3F10302BB6A9A61BB6ABA6A20
:101E80005A623A68F9683869FFF74AF90246BB6A4C
:101E90001A607B6A002B02D07B6ABA6A1A6000BFA4
:101EA0001837BD4680BD000080B584B000AF7860B3
:101EB000FFF704FA3F4B1B6801333E4A13603E4B69
:101EC0001B68002B09D13C4A7B681360394B1B68A7
:101ED000012B10D100F008FD0DE0384B1B68002BE2
:101EE00009D1354B1B68DA6A7B68DB6A9A4202D8F3
:101EF000314A7B681360324B1B680133304A1360F0
:101F00007B68DA6A2F4B1B689A4203D97B68DB6ACD
:101F10002C4A13607B68DA6A2B4913469B001344F2
:101F20009B000B4404331B68FB607B68FA689A6073
:101F3000FB689A687B68DA60FB689B687A680432A1
:101F40005A607B681A1DFB689A607B68DA6A1346E0
:101F50009B0013449B001C4A1A447B685A617B68AF
:101F6000DA6A194913469B0013449B000B441B6813
:101F7000591C154813469B0013449B0003441960E9
:101F8000FFF7B4F90D4B1B68002B0ED00A4B1B68F2
:101F9000DA6A7B68DB6A9A4207D20C4B4FF08052B8
:101FA0001A60BFF34F8FBFF36F8F00BF1037BD466E
:101FB00080BD00BF68190020B818002074190020E7
:101FC0008419002070190020BC18002004ED00E0E6
:101FD00080B586B000AF7860396000237B6100F087
:101FE000A7F8224B1B683B617B681A683B68134467
:101FF000FB607B681A683B699A420BD97B681A6858
:10200000FB689A4211D9FA683B699A420DD90123BB
:102010007B610AE07B681A68FB689A4203D8FA6819
:102020003B699A4201D901237B617B68FA681A6097
:102030007B69002B06D0FA683B69D31A0021184649
:1020400000F0E8FC00F082F8B860BB68002B07D114
:10205000074B4FF080521A60BFF34F8FBFF36F8F63
:102060007B6918461837BD4680BD00BF6C1900203B
:1020700004ED00E080B584B000AF78600023FB6021
:102080007B68002B08D000F053F80021786800F03E
:10209000C1FC00F05BF8F860FB68002B07D1064B31
:1020A0004FF080521A60BFF34F8FBFF36F8F00BFA6
:1020B0001037BD4680BD00BF04ED00E080B584B0A0
:1020C00002AF144B019300230093002346221249D0
:1020D0001248FFF735FE78607B68012B14D14FF072
:1020E000500383F31188BFF36F8FBFF34F8F3B60B3
:1020F0000B4B4FF0FF321A600A4B01221A600A4B59
:1021000000221A60FFF77AF8084B1B6800BF0837F7
:10211000BD4680BD8C1900209C2B0008B528000806
:1021200088190020741900206C1900205C00002020
:1021300080B400AF044B1B680133034A136000BF37
:10214000BD4680BC704700BF9019002080B586B0A6
:1021500000AF00237B6100233B61FFF7AFF8694BC1
:102160001B68013B674A1360664B1B68002B40F0FD
:10217000C180654B1B68002B00F0BC808BE0634B7B
:10218000DB68DB687B617B699B6ABB607B69DB69C1
:102190007A69126A9A607B691B6A7A69D2695A60A5
:1021A000BB685A687B6918339A4203D17B691A6A03
:1021B000BB685A607B6900229A62BB681B685A1E22
:1021C000BB681A607B695B697B607B699B687A6925
:1021D000D2689A607B69DB687A6992685A607B682A
:1021E0005A687B6904339A4203D17B69DA687B6859
:1021F0005A607B6900225A617B681B685A1E7B68A3
:102200001A607B69DA6A424B1B689A4203D97B6980
:10221000DB6A3F4A13607B69DA6A3E4913469B00DA
:1022200013449B000B4404331B683B607B693A6892
:102230009A603B689A687B69DA603B689B687A6958
:1022400004325A607B691A1D3B689A607B69DA6ABE
:1022500013469B0013449B002E4A1A447B695A6123
:102260007B69DA6A2B4913469B0013449B000B449D
:102270001B68591C274813469B0013449B000344CA
:1022800019607B69DA6A244B1B68DB6A9A4202D3C5
:10229000224B01221A601D4B1B68002B7FF46FAF8D
:1022A0007B69002B01D000F09BFB1D4B1B68FB6082
:1022B000FB68002B10D000F045F80346002B02D03D
:1022C000164B01221A60FB68013BFB60FB68002B88
:1022D000F1D1134B00221A60104B1B68002B09D060
:1022E00001233B610F4B4FF080521A60BFF34F8FB9
:1022F000BFF36F8FFEF7FAFF3B6918461837BD46EC
:1023000080BD00BF90190020681900202819002006
:1023100070190020BC180020B81800207C1900207B
:102320007819002004ED00E080B483B000AF044BC6
:102330001B687B607B6818460C37BD4680BC7047C5
:102340006C19002080B588B000AF0023FB616F4B93
:102350001B68002B40F0CF806D4B1B680133BB61C5
:102360006B4ABB691360BB69002B10D1694B1B68BA
:102370007B61694B1B68674A1360674A7B6913601E
:10238000664B1B680133654A136000F029FB644B00
:102390001B68BA699A42C0F0A7805E4B1B681B6835
:1023A000002B04D15E4B4FF0FF321A609CE0594B7A
:1023B0001B68DB68DB683B613B695B68FB60BA6993
:1023C000FB689A4203D2564AFB6813608CE03B6973
:1023D0005B69BB603B699B683A69D2689A603B69FC
:1023E000DB683A6992685A60BB685A683B69043393
:1023F0009A4203D13B69DA68BB685A603B690022A4
:102400005A61BB681B685A1EBB681A603B699B6AAD
:10241000002B1ED03B699B6A7B603B69DB693A6994
:10242000126A9A603B691B6A3A69D2695A607B6892
:102430005A683B6918339A4203D13B691A6A7B6830
:102440005A603B6900229A627B681B685A1E7B684F
:102450001A603B69DA6A334B1B689A4203D93B69BD
:10246000DB6A304A13603B69DA6A2F4913469B00E6
:1024700013449B000B4404331B683B603B693A6880
:102480009A603B689A683B69DA603B689B683A6986
:1024900004325A603B691A1D3B689A603B69DA6AEC
:1024A00013469B0013449B001F4A1A443B695A6120
:1024B0003B69DA6A1C4913469B0013449B000B449A
:1024C0001B68591C184813469B0013449B00034487
:1024D00019603B69DA6A154B1B68DB6A9A427FF622
:1024E0005CAF0123FB6158E7114B1B68002B07D041
:1024F0000123FB6104E00F4B1B6801330D4A13609D
:10250000FB6918462037BD4680BD00BF90190020EA
:102510006C190020201900202419002080190020A7
:102520008819002070190020BC180020B81800205D
:102530007C1900207819002080B584B000AF334B9F
:102540001B68002B03D0324B01221A605AE0304B3B
:1025500000221A602F4B1B681B6BBB604FF0A5332A
:102560007B60BB681A687B689A4211D1BB680433F0
:102570001A687B689A420BD1BB6808331A687B687B
:102580009A4205D1BB680C331A687B689A4208D01E
:10259000204B1A681F4B1B68343319461046FEF750
:1025A0003FFB1D4B1B68FB6002E0FB68013BFB60CF
:1025B0001A49FA6813469B0013449B000B441B689E
:1025C000002BF2D0FA6813469B0013449B00134A79
:1025D00013443B603B685B685A683B685A603B68E1
:1025E0005A683B6808339A4204D13B685B685A6872
:1025F0003B685A603B685B68DB68064A1360064AC2
:10260000FB68136000BF1037BD4680BD90190020E5
:102610007C190020B818002070190020BC18002078
:1026200080B582B000AF78603960074B1B68183303
:1026300019467868FEF761F90121386800F0EAF977
:1026400000BF0837BD4680BDB818002080B489B0EF
:1026500000AF78607B68DB68DB68BB61BB699B6A45
:102660007B61BB69DB69BA69126A9A60BB691B6AE4
:10267000BA69D2695A607B695A68BB6918339A4251
:1026800003D1BB691A6A7B695A60BB6900229A62EE
:102690007B691B685A1E7B691A604A4B1B68002BBA
:1026A0005FD1BB695B693B61BB699B68BA69D268F2
:1026B0009A60BB69DB68BA6992685A603B695A687C
:1026C000BB6904339A4203D1BB69DA683B695A603B
:1026D000BB6900225A613B691B685A1E3B691A603C
:1026E000BB69DA6A384B1B689A4203D9BB69DB6A5B
:1026F000354A1360BB69DA6A344913469B001344B8
:102700009B000B4404331B68FB60BB69FA689A604A
:10271000FB689A68BB69DA60FB689B68BA69043237
:102720005A60BB691A1DFB689A60BB69DA6A134676
:102730009B0013449B00254A1A44BB695A61BB693C
:10274000DA6A224913469B0013449B000B441B6822
:10275000591C1E4813469B0013449B0003441960F8
:102760001BE01B4B5B68BB60BB69BA68DA61BB6886
:102770009A68BB691A62BB689B68BA6918325A606A
:10278000BB6903F11802BB689A60BB69104A9A6280
:102790000F4B1B6801330E4A1360BB69DA6A0D4B9D
:1027A0001B68DB6A9A4205D90123FB610A4B0122AF
:1027B0001A6001E00023FB61FB6918462437BD461F
:1027C00080BC70479019002070190020BC180020B0
:1027D00028190020B81800207C19002080B483B08C
:1027E00000AF7860064B1A687B681A60054B1A6860
:1027F0007B685A6000BF0C37BD4680BC704700BF85
:10280000801900206C19002080B586B000AF786078
:102810003960FEF753FD1F4B1B683B617B685B68AB
:102820003A69D31AFB603B681B68B3F1FF3F02D1E2
:1028300000237B6126E07B681A68174B1B689A426D
:102840000AD07B685A683B699A4205D801237B61AC
:102850003B6800221A6015E03B681A68FB689A42E0
:102860000BD93B681A68FB68D21A3B681A60786813
:10287000FFF7B4FF00237B6104E03B6800221A608D
:1028800001237B61FEF732FD7B6918461837BD4690
:1028900080BD00BF6C1900208019002080B400AFFB
:1028A000034B01221A6000BFBD4680BC704700BFC9
:1028B0007C19002080B582B000AF786000F054F839
:1028C000074B1B68012B07D9064B4FF080521A604B
:1028D000BFF34F8FBFF36F8FFEF7B2F9EEE700BF84
:1028E000BC18002004ED00E080B582B000AF0023EA
:1028F0007B600CE07A6813469B0013449B00124AED
:1029000013441846FDF7CEFF7B6801337B607B687C
:10291000022BEFD90D48FDF7C5FF0D48FDF7C2FFAB
:102920000C48FDF7BFFF0C48FDF7BCFF0B48FDF757
:10293000B9FF0B4B054A1A600A4B054A1A6000BFE3
:102940000837BD4680BD00BFBC180020F818002025
:102950000C190020281900203C19002054190020CF
:10296000201900202419002080B582B000AF19E0A2
:10297000FEF7A4FC0F4BDB68DB687B607B680433ED
:102980001846FDF7F2FF0C4B1B68013B0A4A136027
:102990000A4B1B68013B094A1360FEF7A7FC7868E5
:1029A00000F00EF8054B1B68002BE1D100BF083783
:1029B000BD4680BD3C190020681900205019002038
:1029C00080B582B000AF78607B681B6B1846FDF75E
:1029D000F1FD7868FDF7EEFD00BF0837BD4680BD0C
:1029E00080B400AF094B1B681B68002B04D1084B57
:1029F0004FF0FF321A6005E0044B1B68DB681B6870
:102A0000034A136000BFBD4680BC704720190020F8
:102A10008819002080B586B000AF786039602E4BF1
:102A20001B687B612D4B1B6804331846FDF79DFF27
:102A30007B68B3F1FF3F24D13B68002B21D0284BAA
:102A40005B683B61254B1B683A699A60234B1B68A6
:102A50003A699268DA603B699B68204A12680432DE
:102A60005A601E4B1B681A1D3B699A601B4B1B6802
:102A70001B4A5A611A4B1B680133194A136000BF85
:102A800026E07A697B681344FB60144B1B68FA6884
:102A90005A60FA687B699A4209D2124B1A680F4B46
:102AA0001B68043319461046FDF727FF10E00E4B54
:102AB0001A680A4B1B68043319461046FDF71DFFC0
:102AC0000A4B1B68FA689A4202D2084AFB681360F4
:102AD00000BF1837BD4680BD6C190020B818002013
:102AE00054190020241900202019002088190020E2
:102AF00070B500250C4E0D4CA41BA410A54209D1A5
:102B000000F02EF800250A4E0A4CA41BA410A54282
:102B100005D170BD56F8253098470135EEE756F8D7
:102B2000253098470135F2E7A42B0008A42B0008B4
:102B3000A42B0008A82B000810B5431E0A4491429C
:102B400000D110BD11F8014B03F8014FF7E7034620
:102B50000244934200D1704703F8011BF9E70000DB
:102B6000F8B500BFF8BC08BC9E467047F8B500BF7A
:082B7000F8BC08BC9E4670474A
:102B7800414443205461736B000000004275747433
:102B88006F6E205461736B004C4544205461736B25
:0C2B98000000000049444C450000000013
:042BA400F50100082F
:042BA800D10100084F
:102BAC000000000004000000080000000C00000001
:102BBC001000000014000000180000001C000000B1
:102BCC000000000004000000080000000C000000E1
:102BDC001000000014000000180000001C00000091
:102BEC00AAAAAAAA6400000000366E010000000028
:102BFC00000000000102030406070809020000009F
:0400000508001A8550
:00000001FF
